{
  "transactions": [
    {
      "hash": "0xbb04809fa0c3efecb9d5d3ca19e72d63ec37ffcaefa6140bd265da4ffd0aa8fa",
      "transactionType": "CALL",
      "contractName": null,
      "contractAddress": "0x030b6d2b19a834535987f20ca2958039b572694c",
      "function": "addPool((address,address,uint24,int24,address))",
      "arguments": [
        "(0x0000000000000000000000000000000000000000, 0xB97EF9Ef8734C71904D8002F8b6Bc66Dd9c48a6E, 3000, 60, 0x0000000000000000000000000000000000000000)"
      ],
      "transaction": {
        "from": "0x1a267d3f9f5116df6ae00a4ad698cdcf27b71920",
        "to": "0x030b6d2b19a834535987f20ca2958039b572694c",
        "gas": "0x2fccd",
        "value": "0x0",
        "input": "0x5bef10400000000000000000000000000000000000000000000000000000000000000000000000000000000000000000b97ef9ef8734c71904d8002f8b6bc66dd9c48a6e0000000000000000000000000000000000000000000000000000000000000bb8000000000000000000000000000000000000000000000000000000000000003c0000000000000000000000000000000000000000000000000000000000000000",
        "nonce": "0x26f",
        "chainId": "0xa86a"
      },
      "additionalContracts": [],
      "isFixedGasLimit": false
    },
    {
      "hash": "0x207a8834deee064ecbb19b1d096a29b5676fa554d5d39642c25346df358b2d9c",
      "transactionType": "CALL",
      "contractName": null,
      "contractAddress": "0x030b6d2b19a834535987f20ca2958039b572694c",
      "function": "addPool((address,address,uint24,int24,address))",
      "arguments": [
        "(0x0000000000000000000000000000000000000000, 0xB97EF9Ef8734C71904D8002F8b6Bc66Dd9c48a6E, 500, 10, 0x0000000000000000000000000000000000000000)"
      ],
      "transaction": {
        "from": "0x1a267d3f9f5116df6ae00a4ad698cdcf27b71920",
        "to": "0x030b6d2b19a834535987f20ca2958039b572694c",
        "gas": "0x26976",
        "value": "0x0",
        "input": "0x5bef10400000000000000000000000000000000000000000000000000000000000000000000000000000000000000000b97ef9ef8734c71904d8002f8b6bc66dd9c48a6e00000000000000000000000000000000000000000000000000000000000001f4000000000000000000000000000000000000000000000000000000000000000a0000000000000000000000000000000000000000000000000000000000000000",
        "nonce": "0x270",
        "chainId": "0xa86a"
      },
      "additionalContracts": [],
      "isFixedGasLimit": false
    },
    {
      "hash": "0x02450a60f8b66adae595a980e662366e949291291e662b5050c5e82495b6a0c8",
      "transactionType": "CALL",
      "contractName": null,
      "contractAddress": "0x030b6d2b19a834535987f20ca2958039b572694c",
      "function": "addPool((address,address,uint24,int24,address))",
      "arguments": [
        "(0x9702230A8Ea53601f5cD2dc00fDBc13d4dF4A8c7, 0xB97EF9Ef8734C71904D8002F8b6Bc66Dd9c48a6E, 3000, 60, 0x0000000000000000000000000000000000000000)"
      ],
      "transaction": {
        "from": "0x1a267d3f9f5116df6ae00a4ad698cdcf27b71920",
        "to": "0x030b6d2b19a834535987f20ca2958039b572694c",
        "gas": "0x34e14",
        "value": "0x0",
        "input": "0x5bef10400000000000000000000000009702230a8ea53601f5cd2dc00fdbc13d4df4a8c7000000000000000000000000b97ef9ef8734c71904d8002f8b6bc66dd9c48a6e0000000000000000000000000000000000000000000000000000000000000bb8000000000000000000000000000000000000000000000000000000000000003c0000000000000000000000000000000000000000000000000000000000000000",
        "nonce": "0x271",
        "chainId": "0xa86a"
      },
      "additionalContracts": [],
      "isFixedGasLimit": false
    }
  ],
  "receipts": [
    {
      "status": "0x1",
      "cumulativeGasUsed": "0x482164",
      "logs": [],
      "logsBloom": "0x00000000000000000000000000000000000000000000000000000000000000000000000000000000000000000000000000000000000000000000000000000000000000000000000000000000000000000000000000000000000000000000000000000000000000000000000000000000000000000000000000000000000000000000000000000000000000000000000000000000000000000000000000000000000000000000000000000000000000000000000000000000000000000000000000000000000000000000000000000000000000000000000000000000000000000000000000000000000000000000000000000000000000000000000000000000",
      "type": "0x2",
      "transactionHash": "0xbb04809fa0c3efecb9d5d3ca19e72d63ec37ffcaefa6140bd265da4ffd0aa8fa",
      "transactionIndex": "0x5",
      "blockHash": "0x01e5608b3aa9da5efc1c480aeff910ab182ef7f30366cf6a74d886cb6f9f91c2",
      "blockNumber": "0x468c923",
      "gasUsed": "0x20af1",
      "effectiveGasPrice": "0x1c30b2a12",
      "from": "0x1a267d3f9f5116df6ae00a4ad698cdcf27b71920",
      "to": "0x030b6d2b19a834535987f20ca2958039b572694c",
      "contractAddress": null
    },
    {
      "status": "0x1",
      "cumulativeGasUsed": "0x49c797",
      "logs": [],
      "logsBloom": "0x00000000000000000000000000000000000000000000000000000000000000000000000000000000000000000000000000000000000000000000000000000000000000000000000000000000000000000000000000000000000000000000000000000000000000000000000000000000000000000000000000000000000000000000000000000000000000000000000000000000000000000000000000000000000000000000000000000000000000000000000000000000000000000000000000000000000000000000000000000000000000000000000000000000000000000000000000000000000000000000000000000000000000000000000000000000",
      "type": "0x2",
      "transactionHash": "0x207a8834deee064ecbb19b1d096a29b5676fa554d5d39642c25346df358b2d9c",
      "transactionIndex": "0x6",
      "blockHash": "0x01e5608b3aa9da5efc1c480aeff910ab182ef7f30366cf6a74d886cb6f9f91c2",
      "blockNumber": "0x468c923",
      "gasUsed": "0x1a633",
      "effectiveGasPrice": "0x1c30b2a12",
      "from": "0x1a267d3f9f5116df6ae00a4ad698cdcf27b71920",
      "to": "0x030b6d2b19a834535987f20ca2958039b572694c",
      "contractAddress": null
    },
    {
      "status": "0x1",
      "cumulativeGasUsed": "0x4c2c24",
      "logs": [],
      "logsBloom": "0x00000000000000000000000000000000000000000000000000000000000000000000000000000000000000000000000000000000000000000000000000000000000000000000000000000000000000000000000000000000000000000000000000000000000000000000000000000000000000000000000000000000000000000000000000000000000000000000000000000000000000000000000000000000000000000000000000000000000000000000000000000000000000000000000000000000000000000000000000000000000000000000000000000000000000000000000000000000000000000000000000000000000000000000000000000000",
      "type": "0x2",
      "transactionHash": "0x02450a60f8b66adae595a980e662366e949291291e662b5050c5e82495b6a0c8",
      "transactionIndex": "0x7",
      "blockHash": "0x01e5608b3aa9da5efc1c480aeff910ab182ef7f30366cf6a74d886cb6f9f91c2",
      "blockNumber": "0x468c923",
      "gasUsed": "0x2648d",
      "effectiveGasPrice": "0x1c30b2a12",
      "from": "0x1a267d3f9f5116df6ae00a4ad698cdcf27b71920",
      "to": "0x030b6d2b19a834535987f20ca2958039b572694c",
      "contractAddress": null
    }
  ],
  "libraries": [],
  "pending": [],
  "returns": {},
  "timestamp": 1766065898501,
  "chain": 43114,
  "commit": "1cd1228"
}